{
  "contractName": "BikeRegistry",
  "abi": [
    {
      "constant": true,
      "inputs": [],
      "name": "owner",
      "outputs": [
        {
          "name": "",
          "type": "address"
        }
      ],
      "payable": false,
      "stateMutability": "view",
      "type": "function"
    },
    {
      "constant": true,
      "inputs": [
        {
          "name": "",
          "type": "uint256"
        }
      ],
      "name": "bikeAccounts",
      "outputs": [
        {
          "name": "",
          "type": "address"
        }
      ],
      "payable": false,
      "stateMutability": "view",
      "type": "function"
    },
    {
      "constant": false,
      "inputs": [
        {
          "name": "newOwner",
          "type": "address"
        }
      ],
      "name": "transferOwnership",
      "outputs": [],
      "payable": false,
      "stateMutability": "nonpayable",
      "type": "function"
    },
    {
      "anonymous": false,
      "inputs": [
        {
          "indexed": false,
          "name": "bikeOwner",
          "type": "address"
        }
      ],
      "name": "NewBike",
      "type": "event"
    },
    {
      "anonymous": false,
      "inputs": [
        {
          "indexed": true,
          "name": "previousOwner",
          "type": "address"
        },
        {
          "indexed": true,
          "name": "newOwner",
          "type": "address"
        }
      ],
      "name": "OwnershipTransferred",
      "type": "event"
    },
    {
      "constant": false,
      "inputs": [
        {
          "name": "_address",
          "type": "address"
        },
        {
          "name": "_first_name",
          "type": "string"
        },
        {
          "name": "_last_name",
          "type": "string"
        },
        {
          "name": "_email",
          "type": "string"
        },
        {
          "name": "_BIN",
          "type": "string"
        }
      ],
      "name": "registerBike",
      "outputs": [],
      "payable": false,
      "stateMutability": "nonpayable",
      "type": "function"
    },
    {
      "constant": true,
      "inputs": [],
      "name": "getBikeLength",
      "outputs": [
        {
          "name": "",
          "type": "uint256"
        }
      ],
      "payable": false,
      "stateMutability": "view",
      "type": "function"
    }
  ],
  "bytecode": "0x6080604052336000806101000a81548173ffffffffffffffffffffffffffffffffffffffff021916908373ffffffffffffffffffffffffffffffffffffffff1602179055506108eb806100536000396000f30060806040526004361061006d576000357c0100000000000000000000000000000000000000000000000000000000900463ffffffff1680638da5cb5b1461007257806395704a73146100c9578063b408c46114610224578063f2fde38b14610291578063fdbcda06146102d4575b600080fd5b34801561007e57600080fd5b506100876102ff565b604051808273ffffffffffffffffffffffffffffffffffffffff1673ffffffffffffffffffffffffffffffffffffffff16815260200191505060405180910390f35b3480156100d557600080fd5b50610222600480360381019080803573ffffffffffffffffffffffffffffffffffffffff169060200190929190803590602001908201803590602001908080601f0160208091040260200160405190810160405280939291908181526020018383808284378201915050505050509192919290803590602001908201803590602001908080601f0160208091040260200160405190810160405280939291908181526020018383808284378201915050505050509192919290803590602001908201803590602001908080601f0160208091040260200160405190810160405280939291908181526020018383808284378201915050505050509192919290803590602001908201803590602001908080601f0160208091040260200160405190810160405280939291908181526020018383808284378201915050505050509192919290505050610324565b005b34801561023057600080fd5b5061024f600480360381019080803590602001909291905050506106f6565b604051808273ffffffffffffffffffffffffffffffffffffffff1673ffffffffffffffffffffffffffffffffffffffff16815260200191505060405180910390f35b34801561029d57600080fd5b506102d2600480360381019080803573ffffffffffffffffffffffffffffffffffffffff169060200190929190505050610734565b005b3480156102e057600080fd5b506102e9610889565b6040518082815260200191505060405180910390f35b6000809054906101000a900473ffffffffffffffffffffffffffffffffffffffff1681565b61032c610896565b600160008773ffffffffffffffffffffffffffffffffffffffff1673ffffffffffffffffffffffffffffffffffffffff16815260200190815260200160002060806040519081016040529081600082018054600181600116156101000203166002900480601f0160208091040260200160405190810160405280929190818152602001828054600181600116156101000203166002900480156104105780601f106103e557610100808354040283529160200191610410565b820191906000526020600020905b8154815290600101906020018083116103f357829003601f168201915b50505050508152602001600182018054600181600116156101000203166002900480601f0160208091040260200160405190810160405280929190818152602001828054600181600116156101000203166002900480156104b25780601f10610487576101008083540402835291602001916104b2565b820191906000526020600020905b81548152906001019060200180831161049557829003601f168201915b50505050508152602001600282018054600181600116156101000203166002900480601f0160208091040260200160405190810160405280929190818152602001828054600181600116156101000203166002900480156105545780601f1061052957610100808354040283529160200191610554565b820191906000526020600020905b81548152906001019060200180831161053757829003601f168201915b50505050508152602001600382018054600181600116156101000203166002900480601f0160208091040260200160405190810160405280929190818152602001828054600181600116156101000203166002900480156105f65780601f106105cb576101008083540402835291602001916105f6565b820191906000526020600020905b8154815290600101906020018083116105d957829003601f168201915b505050505081525050905084816000018190525083816020018190525082816040018190525081816060018190525060028690806001815401808255809150509060018203906000526020600020016000909192909190916101000a81548173ffffffffffffffffffffffffffffffffffffffff021916908373ffffffffffffffffffffffffffffffffffffffff160217905550507f0b61765dbd95326b5aced87637c7e1e45bca66181d5efd6cd74600e91c835a2786604051808273ffffffffffffffffffffffffffffffffffffffff1673ffffffffffffffffffffffffffffffffffffffff16815260200191505060405180910390a1505050505050565b60028181548110151561070557fe5b906000526020600020016000915054906101000a900473ffffffffffffffffffffffffffffffffffffffff1681565b6000809054906101000a900473ffffffffffffffffffffffffffffffffffffffff1673ffffffffffffffffffffffffffffffffffffffff163373ffffffffffffffffffffffffffffffffffffffff1614151561078f57600080fd5b600073ffffffffffffffffffffffffffffffffffffffff168173ffffffffffffffffffffffffffffffffffffffff16141515156107cb57600080fd5b8073ffffffffffffffffffffffffffffffffffffffff166000809054906101000a900473ffffffffffffffffffffffffffffffffffffffff1673ffffffffffffffffffffffffffffffffffffffff167f8be0079c531659141344cd1fd0a4f28419497f9722a3daafe3b4186f6b6457e060405160405180910390a3806000806101000a81548173ffffffffffffffffffffffffffffffffffffffff021916908373ffffffffffffffffffffffffffffffffffffffff16021790555050565b6000600280549050905090565b6080604051908101604052806060815260200160608152602001606081526020016060815250905600a165627a7a723058201793ab69bd7aa126411e4728435f45c04c0e78d5baf1fc5c67b7a893aaaacebe0029",
  "source": "import \"openzeppelin-solidity/contracts/ownership/Ownable.sol\";\n\npragma solidity ^0.4.18;\n\ncontract BikeRegistry is Ownable { //extends Ownable contract\n\n  //define a struct variable to hold the bike's owner information\n  struct bike {\n    string first_name;\n    string last_name;\n    string email;\n    string BIN; //BIN is the \"bike identification number\"\n  }\n\n  //map an address to the bikeoOwner struct\n  mapping (address => bike) bikes;\n\n  //create an address array to store all the bike addresses\n  address[] public bikeAccounts;\n\n  //create an event for when bike is registered\n  event NewBike(\n    address bikeOwner\n  );\n\n  //Add bike to mapping\n  function registerBike(address _address, string _first_name, string _last_name, string _email, string _BIN) public {\n    //requires: 1)contract owner 2)_BIN must be unique\n\n    //set a variable that bind to the bikes mapping. Use memory for struct\n    bike memory newBike = bikes[_address];\n\n    //set the values to the newBike variable\n    newBike.first_name = _first_name;\n    newBike.last_name = _last_name;\n    newBike.email = _email;\n    newBike.BIN = _BIN;\n\n    //pushing the address to the the bikeAccounts address array\n    bikeAccounts.push(_address);\n\n    emit NewBike(_address);\n  }\n\n  //returns the length of the bikeAccounts address array\n  //can only be called outside of this contract\n  function getBikeLength() external view returns (uint256) {\n    return bikeAccounts.length;\n  }\n\n\n\n  //get the bike\n  //First we need to create a function to retrieve the addresses from the bikeAccounts address array\n\n  // function getBike(address bikeOwnerAddress) external view returns (string _first_name, string _last_name, string _email, string _BIN) {\n  //   //anyone can see which bike belongs to which ethereum address\n  //   //require is not necessary\n\n  //   //since we map struct bike to an address we need to use memory in the function\n  //   bike memory b = bikes[bikeOwnerAddress];\n\n  //   //return b\n  //   return (b.first_name, b.last_name, b.email, b.BIN);\n  // }\n}",
  "sourcePath": "/Users/simonnguyen/Desktop/Ethereum/bike-registry/contracts/BikeRegistry.sol",
  "compiler": {
    "name": "solc",
    "version": "0.4.24+commit.e67f0147.Emscripten.clang"
  },
  "schemaVersion": "2.0.1",
  "updatedAt": "2018-10-24T17:06:38.318Z"
}